{
  "contractName": "KratosToken",
  "abi": [
    {
      "constant": true,
      "inputs": [],
      "name": "totalSupply",
      "outputs": [
        {
          "name": "",
          "type": "uint256"
        }
      ],
      "payable": false,
      "stateMutability": "view",
      "type": "function",
      "signature": "0x18160ddd"
    },
    {
      "inputs": [
        {
          "name": "_initialSupply",
          "type": "uint256"
        }
      ],
      "payable": false,
      "stateMutability": "nonpayable",
      "type": "constructor",
      "signature": "constructor"
    }
  ],
  "bytecode": "0x608060405234801561001057600080fd5b506040516020806100dc8339810180604052602081101561003057600080fd5b50516000556099806100436000396000f3fe608060405260043610603e5763ffffffff7c010000000000000000000000000000000000000000000000000000000060003504166318160ddd81146043575b600080fd5b348015604e57600080fd5b5060556067565b60408051918252519081900360200190f35b6000548156fea165627a7a72305820bf71414c1fc9276dc8581b485e640a4a235b7022fd347b1b937a0dd79e0ef1ad0029",
  "source": "pragma solidity ^0.5.0;\r\n\r\ncontract KratosToken {\r\n    uint256 public totalSupply;\r\n\r\n    constructor(uint256 _initialSupply) public {\r\n        totalSupply = _initialSupply;\r\n    }\r\n}\r\n",
  "sourcePath": "S:/github repo/kratos/contracts/KratosToken.sol",
  "compiler": {
    "name": "solc",
    "version": "0.5.0+commit.1d4f565a.Emscripten.clang"
  },
  "schemaVersion": "3.0.1",
  "updatedAt": "2019-07-23T11:25:46.220Z",
  "devdoc": {
    "methods": {}
  },
  "userdoc": {
    "methods": {}
  }
}